:020000040800F2
:1000000068090020C5000008090E0008070A00085A
:1000100000000000000000000000000000000000E0
:100020000000000000000000000000000D0E0008AD
:1000300000000000000000000B0E00080F0E00087A
:10004000D700000800000000D7000008D700000813
:10005000D7000008D7000008D7000008D700000824
:1000600000000000D7000008D7000008D7000008F3
:10007000D7000008D7000008D700000800000000E3
:10008000D70000080000000000000000D7000008B2
:1000900000000000D7000008D7000008D7000008C3
:1000A00000000000D700000800000000D700000892
:1000B0000348854600F084FC004800470D180008FE
:1000C000680900200448804704480047FEE7FEE72F
:1000D000FEE7FEE7FEE7FEE7B50E0008B100000808
:1000E00030B50B46014600202022012409E00D46D0
:1000F000D5409D4205D31D469540491B2546954058
:1001000040191546521E002DF1DC30BD70B500249B
:100110002546002801DA01244042002901DA0125A0
:100120004942FFF7DDFFAC4200D04042002C00D036
:10013000494270BDD2B201E00270401C491EFBD2A0
:1001400070470022F6E710B513460A4604461946E2
:10015000FFF7F0FF204610BDF8B502464A40D40F25
:1001600042004B0052085B089A4202D202460846FF
:1001700011464A0023D0C30D4A00DDB2120EAD1A5B
:10018000202D35DA49020126490AF6058A19002C84
:1001900000D0524220214F1B1146B9402A4110186D
:1001A000C20D9A4221D0002C17D0012D08DCDA05AF
:1001B000801AD20F8019D207DBB200F0E4FAF8BD42
:1001C000DA05801A012340001B06C01880185A4225
:1001D0008018CA0F1043490007E04908C2071143BD
:1001E000DA05801A80194008801800F0C4FAF8BDBA
:1001F00061000122511A001BF7E70122D20751408A
:10020000AAE70122D2075040A6E7024670B54A404D
:10021000D30FDB0740002DD04A002AD0010E140E68
:10022000000212020919400A520A8418E501044624
:100230005443000A120A2E045043A4194219200CF8
:10024000C543AA18120C0125AD03521C5219120401
:100250007F39240400D0521C104301D44000491EB1
:10026000C2B20C06C0092018401C4008802A02D0E7
:1002700003E0002070BD40084000002900DA0020A3
:10028000184370BD70B502464A40D50F40004A0081
:10029000ED0740085208002814D0002A12D0C40DDF
:1002A000D30D41020120C0055202490A520AE41A44
:1002B000091812187D34914201D3641C00E04900F2
:1002C000002C01DA002070BD0023914201D3891A6D
:1002D0000343400849000028F7D100290AD0914281
:1002E00002D10121C90705E0914201D2012101E0BB
:1002F0000121C943E005C018401900F03CFA70BD67
:10030000F0B507460846584087B0C00F0490480033
:100310000E46590040084908BC1A884105D23846A3
:1003200031461E4617460B46024658004008104309
:100330004CD0300D039040055900400D490D0590FB
:10034000401A0290402872DA18030121000B0905B7
:100350000843019004980092002805D00199524268
:100360000020884100920190029840210A1A0199C8
:10037000009800F0DDF905460C466B4607CB00F00F
:10038000E7F9C0197141039A0E0D0023D7175640A3
:100390001A467A40164344D0049A002A2DD0029A75
:1003A000012A039A15DC1205C01A9141012636056F
:1003B000001C7141D20F059ED20700930192029654
:1003C0002A46234600F025FA07B0F0BD38463146EC
:1003D000FAE71605224A0F46B218C01AB7410121A2
:1003E0000905001C4F4100187F411146181879413A
:1003F000E20F10436D19644113E0E2076D081543E5
:100400006408C2071443039A01261205C01A9141D9
:100410003605001C7141CE07400830434908C0181A
:1004200051412A46234600F0E7F9CDE7FFE704985B
:1004300001224000C117121A00238B410498314653
:10044000C417381AA141EEE730B40124E407634031
:1004500030BC55E730B40124E407614030BC4FE7BD
:100460000000E0FFF0B51FB488B00B990998002494
:1004700048400999C00F490049080991C0070B99E4
:100480000090490049080B9109990898A64608432D
:100490001CD00B990A98084318D0099801244000F1
:1004A000420D4800410D099824050003000B20432C
:1004B00009900B980003000B20430B9050181C4927
:1004C0004018002201901446104605E00020014625
:1004D0000DB0F0BD032801DA034600E003239C467B
:1004E000C11A0AAE0AE05F0008ADED5B4F00F75B92
:1004F0007D430027AA187C41491C5B1E6145F2DD43
:10050000410004AB5A522104120C0A43240C401C33
:100510000828DFDB01980290009970460191009055
:10052000059B049A0799069800F073F9D0E700003C
:100530000DFCFFFFF0B50C465C4085B0E40FE4070E
:1005400003944C000026640859009446490802466A
:100550000296224321D062460A431ED06200570D04
:100560004A000E032303550D012402462C4924059D
:10057000781B1B0B360B4018234326436146009023
:100580001C46501AB44103D30098401C009002E06E
:10059000921800985B41002803DA0020014605B05C
:1005A000F0BD0020012109050746864611E064469A
:1005B0001D46141BB54106D36546521BB341744614
:1005C00007430C43A646CD07400849082843921824
:1005D0005B4105460D43EAD11046184313D06046EF
:1005E000194650407140084306D06046101AB34186
:1005F00006D20122002306E000220123DB0702E0ED
:100600000122D2435310009874460105381C614101
:10061000029C039D0019694100F0EEF8BFE700005D
:10062000FD030000C217C10F504010B54018CA07A3
:100630009623002100F0A7F810BD10B500229623E4
:10064000114600F0A0F810BDC20FD20740004008CC
:100650000BD0C10D0723DB01C91840020905400A70
:100660001143C208400711437047002001467047FC
:10067000CB0FDB07490010B5490802460A4307D0F3
:100680000A0D07240903E401090B121B002A01DCEF
:10069000002010BDC900440F0C43C100E018D20572
:1006A000801800F068F810BD0122D207002800DB96
:1006B000101A002900DB511A814270470122D2072B
:1006C000002800DB101A002900DB511A884270470D
:1006D000F0B51FB40646002082B0054640240191C3
:1006E00000901BE0019922460F46304600F07AF94F
:1006F000049A059B801A994110D310461946224648
:1007000000F016F8361A8F41019722460120002189
:10071000009F00F00DF838184D4100902046641EEF
:100720000028DFDC019B00982946324607B0F0BD67
:1007300010B5202A04DB0146203A9140002010BD6C
:10074000914020239C1A0346E3401943904010BD7A
:1007500010B5202A06DBCB170846203A1041C117F6
:100760000B4306E00B461341D0402024A21A9140CF
:100770000843194610BD002904DA401C490001D184
:1007800040084000704770B40024050C05D11024C7
:10079000000402D1002921D01124050E01D100024C
:1007A0000834050F01D10001241D850F01D18000FF
:1007B000A41C002801DB4000641C002908D020256F
:1007C0002E1B0D46F540A14000D0012129430843CE
:1007D00001061B1B000ADB1D02D5002070BC704700
:1007E000DB05181880180029F8DA401C4900F5D1FB
:1007F00070BC40084000704710B5002B08DA002498
:10080000401C614192185B411A4301D140084000ED
:1008100010BDF0B51FB482B005460C0003D00846E9
:1008200000F06CFB02E000F069FB20300246009013
:1008300021462846FFF77CFF049B059A04460F4695
:1008400018431143084314D0184610431BD0009896
:1008500040210A1A1846059900F0C4F805460E46CC
:10086000009A05990498FFF763FF084305D001201B
:1008700004E02046394607B0F0BD0020C11705430B
:100880000E432C43374300990E986305401A7905AF
:10089000E40A00220C43FD0A0A3002D5002001467A
:1008A000E9E70105101969410C9C0D9D001969418A
:1008B000FFF7A2FFDFE7FEB500231A461B1A8A41A5
:1008C00003DB0020014603B0F0BD4A000D03012107
:1008D0002D0B0905520D0D43D10702D100186D41B2
:1008E000521E5110FF31FF310131002704463E46B0
:1008F000384600970191024601210020090500F0C9
:1009000071F8C3197141F818324684468E464A413F
:1009100061462846611A904104D36046241A9541E5
:1009200076461F46241900986D41401C00903428DB
:10093000E1DDF91930467041091BA84103D20022BC
:10094000D243134601E00022134601980105381CEA
:100950007141FFF751FFB6E74A0009030123090B74
:100960001B0519430A4B10B5520D9A4202DA0020BA
:10097000014610BD064B34339A4203DC9A1A00F04C
:1009800031F810BD034BD218FFF7D2FE10BD0000A6
:10099000FF030000CDFBFFFF10B5002904DB01249D
:1009A000E40740428C412146002B04DB1C46012316
:1009B000DB075242A341994200D1904210BD000092
:1009C000064C0125064E05E0E36807CC2B430C3CA2
:1009D00098471034B442F7D3FFF76EFB7430000829
:1009E0009430000810B5202A04DB0846203AD04095
:1009F000002110BD0B46D340D0402024A21A9140C4
:100A00000843194610BDFEE7FFB52A4C83B0E169E3
:100A10001F461646204620221143E161264A0192D4
:100A2000110300910122039913461143002200F0A3
:100A300023F9224B03E00021586800F03DFAA06939
:100A40000007C00FF7D164251D700498C0B2A062E2
:100A500003E00021586800F02FFAA069C007C00F1A
:100A6000F7D016480570E169204620221143E16164
:100A70000121134A4906019200913B460022039945
:100A800000F0FAF80D4B03E00021586800F014FA6A
:100A9000A0694007C00FF7D01D70606A3070761CE7
:100AA0007F1E3F063F0EF3D1E06920210843E0613D
:100AB00007B0F0BD00540040002000801C00002062
:100AC00000240080FFB583B01F462E4C2E4E03E05D
:100AD0000021606800F0F0F9B0690004C00FF7D1A0
:100AE00064252A492570C802019100900123002243
:100AF0003046039900F0C0F803E00021606800F080
:100B0000DBF9B069C007C00FF7D025700498B06258
:100B100003E00021606800F0CFF9B0690006C00F63
:100B2000F7D025700021012040060A46019100906F
:100B30003B461548039900F09FF82B460026124DBE
:100B40000DE00021606800F0B7F9A869C007C00F88
:100B5000F7D023700598805DA862761CB6B2BE42BD
:100B6000F3D303E00021606800F0A6F9A8698006CD
:100B7000C00FF7D02370E86920210843E86107B06F
:100B8000F0BD00001C000020005400400020008048
:100B900008B504494A6902434A6149690140009124
:100BA00008BD00000010024008B50449CA690243AC
:100BB000CA61C9690140009108BD000000100240EF
:100BC000F0B500243EE001232A46A3401A4038D065
:100BD0004F680668134653435D005D19AE435F439B
:100BE0003E4306604E68012E01D0022E05D18F686B
:100BF00086685F43AE433E4386600F69C668AE4376
:100C00001D467D432E43C6604D68022D19D1FF2A33
:100C10000AD84E69056A534353431A01D21A9543C1
:100C200073431D4305620CE0130A1A465A435A43A4
:100C30005A4313019E1A4D69436A6A43B3431343EF
:100C40004362641C0A681546E240BCD14A68012A26
:100C500001D0022A06D1CB6841682A4691435A4303
:100C6000114341600020F0BD0069814301D00020A4
:100C70007047012070470000F0B5069C4568660D7E
:100C800011431A041143044F059A3E431143B543DF
:100C900021430D434560F0BDFF7BFF0330B5026883
:100CA0005208520002608C68CA6803681F252D0232
:100CB0001202AB432243134303604A680261026895
:100CC00001231A43026083680122D20393438360A5
:100CD0008C690B6985682343ED0AED021D4385602D
:100CE0000B69002B02D08368134383600C68036890
:100CF00003252D05AB43234303604B6941689143B2
:100D000019434160002030BD10B57D21C900FFF7B7
:100D1000E7F90449401E4861002088610520086108
:100D200010BD000000E000E00149086070470000CD
:100D30002C00002008B506490A690092421C00D028
:100D4000401C0A69D20300D5401E0028F9D108BD15
:100D500000E000E0F0B58DB01C2106A8FFF7F1F926
:100D600018216846FFF7EDF901204004FFF710FF56
:100D700001250120042740020224032603956A4628
:100D80000597049551C209206946C006FFF718FF70
:100D9000600203956A460597049551C20920694689
:100DA000C006FFF70DFF2005FFF7FEFE134CE068BD
:100DB000E1138843E06020680901884320602068CF
:100DC00089108843206000200D4907910690089003
:100DD00009900A900B900C9006A92046FFF75EFF41
:100DE0006068690608436060E06806490840E060A2
:100DF0002068284320600DB0F0BD00000054004082
:100E00000B02000001F8FFFF704770477047704702
:100E100070B52548012102688A430A4302600068D0
:100E2000224C20680843206020688007C00FFBD058
:100E30002068F821884380210843206005216068EC
:100E4000C9043D221204904308436060E06A00092F
:100E50000001E06220680121090608432060206843
:100E60008001C00FFBD06068F0218843606060683B
:100E700007210902884360606168022089088900AF
:100E8000014361600C21606808400828FBD1084DCF
:100E90002846FFF739FF2846FFF746FF206B102151
:100EA0008843206370BD0000002002400010024013
:100EB000006CDC027047000005490969C903C90FCD
:100EC00004D001784A1E027000D200BF70470000B3
:100ED00000E000E00FB410B504A9074B02AA039884
:100EE00000F0F2F8044602A9002000F089FC204638
:100EF00010BC08BC04B01847011800082021020CDF
:100F000001D010211046020A01D01046083902090A
:100F100001D01046091F820801D01046891E4208E0
:100F200001D0881E7047081A704702E008C8121FD7
:100F300008C1002AFAD170477047002001E001C1C2
:100F4000121F002AFBD1704701490860704700005A
:100F500030000020F0B51FB486B00998089A030D40
:100F60000021024314D05148514A18185043051427
:100F70001198012810981AD0281A401C00264D4FAD
:100F80004D49009601910490002812DA444211E084
:100F90001198012449A3012801D11098C143069852
:100FA000119A84600360C26041600BB0F0BD4042A2
:100FB000E4E70446210500203F4A001C514103910B
:100FC000029012E0E00707D032463B4601990098B4
:100FD000FFF748FA0191009032463B461046194609
:100FE000FFF740FA06460F466410002CEAD1049839
:100FF000039B0028029A0999089806DAFFF732FA4B
:10100000019B009AFFF72EFA05E0FFF793FA019B88
:10101000009AFFF78FFA04460E460022284BFFF78E
:10102000BBFC03D80020C043014607E00022254B4B
:1010300020463146FFF764F9FFF78EFC102409E0E3
:10104000002C0ADB0A220023FFF742FB079B303209
:101050001A55641E02460A43F2D11122641C079BF2
:10106000121B1C19119B012B03D0012308430ED125
:101070000AE0084304D0112010900020119077E777
:101080001098151A6D1E0BE01098824202DD0023A5
:101090006D1C03E0824201DA00236D1E002BEED0AE
:1010A000069811998260C16030C07EE701FCFFFFA5
:1010B000104D0000000014400000F03F3000000020
:1010C0000000F0430000E03FFFB597B00646002562
:1010D00018E2252877D100242746FD49049400E032
:1010E0000443761C32780120203A90400842F7D120
:1010F00030782A280ED0022230780146303909296A
:1011000016D804990A235943303940181443761CE1
:101110000490F1E7189802C804911890002904DAA5
:101120000120400304434842049002200443761CFB
:1011300030782E2814D1042004437078761C2A2895
:1011400009D11898761C80C8189009E00A214F43ED
:10115000303FC719761C3078014630390929F5D956
:1011600030786C2810D006DC4C281AD068280ED0B5
:101170006A2817D104E0742813D07A2812D110E01D
:101180000120400504430CE00121090501E0032191
:1011900009050C437178814203D101200005241810
:1011A000761C761C3078119066280BD013DC5828FA
:1011B0007DD009DC00287BD04528F6D04628F4D025
:1011C00047281AD1A5E118E0632835D0642870D0EB
:1011D000652812D19DE170286CD008DC6728F1D019
:1011E00069287BD06E280DD06F2806D1BAE073280D
:1011F0002ED0752871D0782859D01A9A199990470D
:101200006D1C7EE16002400F022809D003280DD03A
:101210000428189801680DD00D60001D189070E129
:101220001898EA1701680D604A60F6E71898016897
:101230000D80F2E70D70F0E718986A460178117298
:10124000001D18900020507202A80090012005E0B7
:10125000189802C8189000200091C04361070DD56E
:10126000002101E00199491C0191B94212DA814241
:10127000F8DB009A515C0029F4D10BE0002101E079
:101280000199491C01918142FADB019A0099895C1C
:101290000029F5D1019904981A9B471A214638462E
:1012A000199A00F097FA0199401945180BE04FE0A0
:1012B0002CE113E04EE0009800990078491C009161
:1012C0001A9A199990470198401E0190401CF2D13A
:1012D000214638461A9B199A10E137E00A2000216E
:1012E000009001916002410F022907D0189A01CAAB
:1012F0001892C2179446032908D00AE01898C01D16
:10130000C108C90005C91891944607E000B2C21788
:101310009446042902D140B2C1178C46002261468E
:10132000944506DA0A460021404291418C462D211F
:1013300002E0210504D52B216A461173012103E047
:10134000E10701D02021F7E7029155E00A200AE0E9
:10135000102008E010200090002104200443019197
:10136000082703E008200021019100906002410F4E
:10137000022907D0189A01CA18920022944603291C
:1013800008D008E01898C01DC108C90005C9189107
:10139000944603E080B2042900D1C0B2002102913A
:1013A000210729D51199702906D0009A1021019B97
:1013B0004A401A4305D00EE040216A4611730121CC
:1013C00008E06146014306D030216A461173119945
:1013D000517302210291009A0821019B4A401A434D
:1013E0000AD16146014301D1610705D530216A4622
:1013F000117301217F1E02911199582904D035A142
:101400000E910DA90D910DE037A1F9E76146019B01
:10141000009AFFF75DF90E9B8C469B5C0D9A521E5D
:101420000D92137061460143F0D10D9805A9081A79
:1014300020300190600703D501200004844300E0C0
:1014400001270198874201DD381A00E00020019948
:1014500000904118029809180498401A0490E0037B
:1014600006D421461A9B199A049800F0B3F945193D
:10147000002706E003A81A9AC05D199990476D1CD1
:101480007F1C02988742F5DBE0030CD521461A9BAE
:10149000199A049800F09EF9451904E01A9A302030
:1014A000199990476D1C0099481E00900029F5DCA1
:1014B00008E00D980D990078491C0D911A9A199918
:1014C00090476D1C0199481E01900029F1DC63E1F1
:1014D000092801003031323334353637383961620A
:1014E00063646566000000003031323334353637CE
:1014F00038394142434445460000000000F05AF9A3
:101500004519761C3078002800D0E2E528461BB04B
:10151000F0BD600700D406271898C01DC108C90097
:1015200048680A680831C30FDB071891190001D019
:101530009CA108E0210501D59BA104E0E10701D0B1
:101540009AA100E09AA1430011985B0810916528C8
:101550000CD006DC452809D046281DD0472841D1AB
:1015600041E0662818D067283CD13CE00021112FCB
:1015700001DB112000E0781C0191009008A911A85E
:10158000FFF7E8FC139905910021119A15927F1C31
:1015900012980197009150E00120C00703900120AC
:1015A000019008A9009711A8FFF7D4FC139A149989
:1015B00005920022119B009212981593059A0192B0
:1015C000002901D0104602E0791C40180190381A19
:1015D00001D5019804E04042401E0090781C019023
:1015E000C01B029043E0012F00DA01270021112FD8
:1015F00001DD112000E038460191009008A911A8F2
:10160000FFF7A8FC13990591119A002112981592E1
:101610000091019721070CD40599B94201DB01998A
:1016200000E00191012904DD159A491E515C302921
:1016300006D0B84201DA011D05DA0121029115E058
:101640000199491EEDE7002805DC00994118009139
:101650000199091A03E0019A411C914200DD0191B0
:101660000099401A401C02900120C00703902007F7
:1016700006D402990198814202DB0020C043029007
:1016800000206946C87707AF012103980337C907CF
:10169000884224D0022011902B2012900398002819
:1016A0000CDA404203902D20129007E00A210398A3
:1016B000FEF716FD30317F1E039039701199481ED8
:1016C00011900029F2DC03980028EFD1791E1298BE
:1016D00008703078202108404530BF1E387006A8B9
:1016E000C01BC01D039010980078002800D0012076
:1016F000019941180298C01709180398091804980D
:10170000401A401E0490E00306D421461A9B199A01
:10171000049800F05FF8451910980078002803D06D
:101720001A9A199990476D1CE00324D521461A9BFB
:10173000199A049800F04EF845191CE0009800280A
:1017400007DB00990598884203DD1598405C1999DC
:1017500001E0199930201A9A904700986D1C401C9E
:1017600000900298401E0290002804D11A9A2E2060
:10177000199990476D1C0199481E01900029DDDCE4
:1017800005E038781A9A7F1C199990476D1C0399C7
:10179000481E03900029F4DC21461A9B199A0498EC
:1017A000ACE600002D0000002B000000200000002F
:1017B00000000000F8B5044600251E4617468804C0
:1017C00004D405E039462020B0476D1C641EF9D5CD
:1017D0002846F8BDFFB50446002581B01E46C80363
:1017E00001D5302700E02027880404D505E03846DD
:1017F0000399B0476D1C641EF9D5284605B0F0BDAD
:101800000A68531C0B6010707047000086B0814856
:10181000012182690A4382618069084000900807BB
:10182000FFF7C2F9FFF7F4FA18216846FEF789FCC2
:1018300001204004FFF7ACF9102000270925ED0630
:1018400000900197694604972846FFF7B9F92020D0
:10185000A86201266946C1C10397694628460497D4
:10186000FFF7AEF9FFF776FA00F000F900F080FC20
:10187000002000F06BFC00230522674967A000965A
:1018800000F03CFC00F0DCFC10230522624965A05E
:10189000009600F033FC00F0D3FC654C6761654FA7
:1018A000606910E010212846FFF7DEF90028F9D121
:1018B000606961498000614A4118801800F00BF9A5
:1018C0006069401C606139688842EBDB584B0C331F
:1018D0001A1F181D0493D11F01AB07C31038031D35
:1018E00000905448544A0168544800F07DF90020A3
:1018F00000F02CFC0120009005230022464950A056
:1019000000F0FCFB00F09CFC4B4F4C4E192060613A
:101910008100CB197A58803BDA6172588919803975
:10192000401CCA616428F3DB2020A8614B20606161
:1019300010212846FFF798F90028F9D16069800046
:10194000C119801900F0C7F86069401C6061642803
:10195000EEDB2020A862364B0C331A1F181D0493AF
:10196000D11F01AB07C31038031D00903148324A24
:101970000168324800F038F9607800283FD02078BC
:1019800000283CD0002000F0E1FB01200090002363
:1019900037222D492D2000F04DFB2CA12C48226927
:1019A000FFF798FA0120009000230A2226492848D0
:1019B00000F0A4FB0120009018230A22254926A04C
:1019C00000F09CFB6068FEF73FFE0B46024623A139
:1019D0001F48FFF77FFA0120009000234E221A498A
:1019E0001B4800F08BFB0120009018234E22194960
:1019F0001CA000F083FB00F023FC00BF86E7012061
:101A000000900023372210492C2000F013FB00F037
:101A100017FC7BE7001002408C2200082020535462
:101A20004D333200204F58494D4554455200000077
:101A30000000002088220008C4010020340000209B
:101A4000646174612E2E2E00312E00082564000082
:101A5000540300203C30000835360000252E316646
:101A600000000000303132333400000010B5402156
:101A7000092000F072F81420FFF75CF9C021022061
:101A800000F06BF80021032000F067F8002104202B
:101A900000F063F80021052000F05FF80021062027
:101AA00000F05BF84F21082000F057F803210920CF
:101AB00000F053F827210A2000F04FF824210C20D1
:101AC00000F04BF824210D2000F047F87F21102072
:101AD00000F043F810BD3EB50546002008600C46F6
:101AE00002A9286000F031F802A9012000F02DF8C9
:101AF00006236A460721AE20FEF786FF6846007877
:101B0000296800040918684629604078000209180D
:101B1000684629608078081828606846C07821687F
:101B20000004091868462160007900020918684617
:101B3000216040790818206028688003800B2860A5
:101B400020688003800B20603EBD0A4610B5014628
:101B50000123AE20FEF758FF10BD13B50146012347
:101B600001AAAE20FEF7AEFF1CBDF7B500273E462A
:101B700005460C460BE021682868FEF746FB39460F
:101B8000FEF7EAFA761C241D074636B22D1D029890
:101B90008642F0DBFEF746FD01463846FEF772FB53
:101BA000FEBDF8B5891A0FB20026002F01DC3046C1
:101BB000F8BD00250446900000900BE000982158E5
:101BC0002068FEF722FB3146FEF7C6FA6D1C06467A
:101BD0002DB2241DBD42F1DB3846FEF723FD014640
:101BE0003046FEF74FFBF8BDFFB50027FFB0D6B07B
:101BF0000C463E463D4613E0A800D5990190085892
:101C0000FEF71BFD3946FEF7A7FA0746D79901985C
:101C10000858FEF712FD3146FEF79EFA06466D1C87
:101C2000A542E9DB2046FEF7FDFC0546294638467D
:101C3000FEF728FB049029463046FEF723FB0025DB
:101C40000CAE70AF099014E0A8000390D599085825
:101C5000FEF7F3FC0499FEF7D0FA3060D7990398A9
:101C60000858FEF7EAFC0999FEF7C7FA01C76D1C90
:101C7000361DA542E8DB5F4D5F4E2A4631460CA873
:101C800000F019F903902A46314670A800F013F9C4
:101C900008905A4800270CAD70AE009018E001463D
:101CA0000398FEF7B2FA2968FEF7ABFA28600099AC
:101CB0000898FEF7AAFA3168FEF7A3FA7F21306090
:101CC000C9057F1C0098FEF747FA2D1D361D0090B0
:101CD000A742E4DB06AA214670A800F00EF907909F
:101CE00005AA21460CA800F008F908900599069865
:101CF000FEF78BFAFEF7A8FC00F078F906460D46D1
:101D0000224670A90CA8FFF730FFFEF79DFC324673
:101D10002B46FEF70FFCFEF7ABFCE299394F08604B
:101D200037490025384C884256DB3F262068360666
:101D3000082808D1059801902523224664210096A1
:101D40000CA800F077F82068002846D00599E198A3
:101D50002522009202910390082301962A4A6421C9
:101D60000CA800F0EFF82168002936D02748FEF7CC
:101D7000CDF9DF9901260860E09806700999089866
:101D8000FEF743FA044604990798FEF73EFA214607
:101D9000FEF778FA1E491F4A4118914224D2FEF7F5
:101DA00053FC04460D461C4A1C4BFEF75BFB1C4AC9
:101DB0001C4BFEF7A5FA22462B46FEF753FB1A4AA8
:101DC0001A4BFEF79DFAFEF753FCD8990860DE988F
:101DD00006707FB05AB0F0BD256008202060DF9803
:101DE00013490160E0980570D8980760DE98057087
:101DF000EFE7000080BEA24700004642000046C256
:101E0000CDCC4C3F00C079C418000020DC05000098
:101E1000F5285CC314AE470348E17A14AE8746C088
:101E2000B4C876BE9F5A3E40AE47E17A14B65740DA
:101E300019FCFFFFFFB581B0146816461F46224605
:101E400002990198FFF7ADFE05460B99FEF71AFAC5
:101E50000A99FEF733FC17D8A41C22460095029974
:101E60000198FFF79EFE05460B99FEF70BFA0A99BB
:101E7000FEF724FC06D828460099FEF715FC01D28F
:101E8000BC42E9DDBC4210DCA41C22460299019848
:101E9000FFF787FE0B99FEF7F5F90A99FEF704FCA8
:101EA00001D2BC42F0DDBC4203DD0020306005B051
:101EB000F0BD3460FBE7F7B50F460D460121002663
:101EC000C9074D4004460EE028462168FEF79DF9FB
:101ED0003146FEF741F906467F21C9052846FEF73F
:101EE0003BF90546241D39462846FEF7DDFBEBD9B4
:101EF00030460299FEF7C6F9FEBDF8B5054600204A
:101F000014460F46064610600AE028680146FEF7B0
:101F10007CF92168FEF720F9761C36B22D1D206071
:101F2000BE42F2DB3846FEF77DFB226801461046D2
:101F3000FEF7A8F92060FEF787FB00F057F8FEF7E0
:101F400097FBF8BDFFB583B00020009014681646DB
:101F5000224604990398FFF724FE07460190641E69
:101F60003D46224604990398FFF71BFE0746294683
:101F7000FEF7A4FB02D206988442F0DA0698844267
:101F800004DA012000903468019D00E0641C306890
:101F9000A0421CD12F46641C3D462246049903985A
:101FA000FFF7FFFD07462946FEF788FB02D20C9893
:101FB0008442F0DD0C98844201DD002400E0641EC0
:101FC0003068A04203D10098002800D000242846A1
:101FD0000E99FEF757F90F9908600D99FEF764FB0B
:101FE00000D20024346007B0F0BD0000F8B506460A
:101FF0000C46FEF760FC051E0F4600D00120014391
:1020000049000B484908411AC90F0DD0002E01D0D4
:10201000012100E000210C4361004908401AC00F73
:1020200002D10120FEF790FF28463946F8BD000096
:102030000000F07FFFB502461F3A82B0612A37D216
:102040000A784D788E78CB7801930B79491DC01AA8
:10205000504340180024009028E0002723E0019816
:102060000099784341182006C00E401C085C6207A6
:10207000520F01219140C9B2084207D005980B9A2E
:102080000019C1B20498C019C0B209E00B98002829
:1020900010D0002205980019C1B20498C019C0B22E
:1020A00000F00AF87F1CAF42D9DB641CB442D4DBD9
:1020B00006B0F0BD0122EDE770B5802815D22029C9
:1020C00013D24D0701246D0F0A4BAC40C9081E798D
:1020D000C901094B0818002E02D0002A06D001E0E1
:1020E000012A03D0195CA143195470BD195C214326
:1020F000FAE700002400002068030020FFB5054631
:1021000083B0087802904F78087916460C46019003
:1021100017E00C99009132462146069BFFF78AFF93
:1021200029780198081A02994843611D40180078DF
:10213000811CB94202D23018801C00E0F019C6B2EE
:102140006D1C28780028E4D107B0F0BD10B500213F
:10215000064B01225202002805D0FF245C54491C82
:102160009142F8D310BD0024F8E700006803002076
:1021700010B50A20FEF7DEFDAE2000F07DF820202D
:1021800000F07AF8102000F077F8B02000F074F832
:10219000C82000F071F8002000F06EF8102000F068
:1021A0006BF8402000F068F8812000F065F8FF200F
:1021B00000F062F8A12000F05FF8A62000F05CF8C3
:1021C000A82000F059F81F2000F056F8A42000F0D5
:1021D00053F8D32000F050F8002000F04DF8D5203F
:1021E00000F04AF8F02000F047F8D92000F044F859
:1021F000222000F041F8DA2000F03EF8022000F042
:102200003BF8DB2000F038F8202000F035F88D2076
:1022100000F032F8142000F02FF8AF2000F02CF876
:102220000020FFF793FF00F00BF804480021018025
:10223000418001214171084610BD000024000020AA
:1022400070B50C4D00242046B030C0B200F014F838
:10225000002000F011F8102000F00EF8E001421903
:10226000802340217820FEF72DFC641CE4B2082C6A
:10227000E9D370BD6803002001B501236A4600213F
:102280007820FEF71FFC08BD640000001F0F0F023E
:102290002008000000000000000000000000000016
:1022A000000000000000000000000000000000002E
:1022B000030000F80BF80B00000000000000000015
:1022C0000000000000000000000000000000000509
:1022D000000018001800180018000000000000009E
:1022E00000000000000000000000000000000A00E4
:1022F00002600EE00FF007F802780EE00FF80378A6
:10230000026802000000000000000000000A7004E3
:10231000F80CF80C9808FC1FFC1F98089808980FF8
:10232000900F000000000000000000000C0000788A
:1023300008780C48067807F003C001E00F600F3002
:1023400009180F080F0000000000000C0000F00F3B
:10235000F80F980898091809180B180A380F300F49
:10236000000C000800000000000003000018001826
:10237000000000000000000000000000000000005D
:10238000000000000000000000040000F00FF80F43
:10239000180800000000000000000000000000001D
:1023A0000000000000000000040000F80FF80FF02B
:1023B0000700000000000000000000000000000016
:1023C00000000000000000072000A000F800F80056
:1023D000F800A00020000000000000000000000045
:1023E0000000000000000600010001C007C0070057
:1023F00001000100000000000000000000000000DB
:102400000000000000030000003800380000000059
:1024100000000000000000000000000000000000BC
:1024200000000000070000000100010001000100A1
:10243000010001000000000000000000000000009A
:102440000000000300000008000800000000000079
:10245000000000000000000000000000000000007C
:10246000000007000C000E0007C001E00070003003
:10247000000000000000000000000000000000005C
:10248000000A0000F00FF80F180F980BD809D808B1
:102490007808F80FF00F00000000000000000000B6
:1024A00005200020003800F80FF80F0000000000A1
:1024B0000000000000000000000000000000000A12
:1024C0000000900F980F98089808980898089808A6
:1024D000F808F008000000000000000000000A00FA
:1024E00000100C980C98089808980898089808F814
:1024F0000FF00F00000000000000000000090003C2
:102500008003C003E00260023002F80FF80F0002FF
:102510000000000000000000000000000A0000F8B9
:102520000CF80C98089808980898089808980F983C
:102530000F000000000000000000000A0000F00F83
:10254000F80F98089808980898089808980F800F2E
:10255000000000000000000000000818001800182B
:1025600000180018001800F80FF00F00000000001D
:102570000000000000000000000A0000F00FF80F4B
:1025800098089808980898089808F80FF00F000025
:1025900000000000000000000A0000F008F80898A1
:1025A000089808980898089808F80FF00F0000009D
:1025B00000000000000000030000200820080000C8
:1025C000000000000000000000000000000000000B
:1025D0000000000000000300002038203800000048
:1025E00000000000000000000000000000000000EB
:1025F00000000000000600018003C007C006600C58
:10260000600C00000000000000000000000000005E
:10261000000000000800008002800280028002802A
:1026200002800280020000000000000000000000A4
:10263000000000070000600CE00EC006800380036D
:102640000001000000000000000000000000000089
:1026500000000918001800180B980B9801980198B1
:1026600001F801F000000000000000000000000080
:10267000000A0000F00FF80FD809D80B580AD80B41
:10268000D80BF80BF00B0000000000000000000069
:102690000A0000F00FF80F180118011801180118AE
:1026A00001F80FF00F000000000000000000000A19
:1026B0000000F80FF80F98089808980898089808EC
:1026C000F80FF00F000000000000000000000A00FA
:1026D00000F00FF80F18081808180818081808183C
:1026E000081808000000000000000000000A0000B8
:1026F000F80FF80F18081808180818081808F80F25
:10270000F00F000000000000000000000A0000F8C8
:102710000FF80F980898089808980898081808184B
:1027200008000000000000000000000A0000F80F90
:10273000F80F98009800980098009800180018006A
:10274000000000000000000000000A0000F00FF888
:102750000F18081808180898099809980F900F0082
:102760000000000000000000000B0000F80FF80F50
:1027700080008000800080008000F80FF80FF80FC4
:102780000000000000000000030000F80FF80F0038
:102790000000000000000000000000000000000039
:1027A000000000000000000A000C000C00080008F7
:1027B000000800080008F80FF80FF80700000000F4
:1027C0000000000000000A0000F80FF80F800080F1
:1027D00000C003E007780E180C0808000000000095
:1027E00000000000000A0000F80FF80F00080008C1
:1027F00000080008000800080008000000000000B1
:10280000000000000B0000F80FF80F7000E000C09F
:1028100001C001E0007000F80FF80F000000000098
:102820000000000A0000F80FF80F7000E000C0017F
:102830008003000FF80FF80F0000000000000000F8
:1028400000000A0000F00FF80F1808180818081800
:10285000081808F80FF00F0000000000000000004A
:10286000000A0000F80FF80F1801180118011801EC
:102870001801F801F0010000000000000000000055
:102880000B0000F00FF80F1808180818081808189F
:1028900008F80FF00F000800000000000000000A18
:1028A0000000F80FF80F1801180118011803180F8D
:1028B000F80DF009000000000000000000000A0010
:1028C00000F00CF80C980898089808980898089850
:1028D0000F900F000000000000000000000A180028
:1028E000180018001800F80FF80F1800180018004A
:1028F0001800000000000000000000000A0000F8BE
:102900000FF80F00080008000800080008F80FF88A
:102910000F000000000000000000000D080018007B
:102920007800F001C003000F000C000FC007E001A9
:10293000780018000800000000000F08003800F8B8
:1029400001E00F000FC00FF8037800F801E00F005E
:102950000FC00FF801780008000A00001808380EB0
:10296000700FE003C001E007700E380C080800008B
:1029700000000000000000000A080018003800F005
:1029800000C00FC00FE00170003800180000000008
:10299000000000000000000A0000180C180E180FBC
:1029A000980BD809D80878083808380800000000C3
:1029B000000000000000040000F80FF80F180800E5
:1029C0000000000000000000000000000000000007
:1029D00000000000000718007800E000C00180033C
:1029E000000F000C000000000000000000000000CC
:1029F00000000000040000F80FF80FF80F000000BE
:102A000000000000000000000000000000000000C6
:102A100000000001000000000000000000000000B5
:102A200000000000000000000000000000000000A6
:102A300000000A000000100010001000100010003C
:102A40001000100010001000000000000000000046
:102A5000000301000300030000000000000000006C
:102A60000000000000000000000000000000000066
:102A7000090000200F200F200920092009E00FE0A5
:102A80000FC00F000000000000000000000000095F
:102A90000000F80FF80F200820082008E00FE00FD2
:102AA000C007000000000000000000000000090056
:102AB00000E00FE00F200820082008200820082050
:102AC0000800000000000000000000000008C0072F
:102AD000E00FE00F200820082008F80FF80F000092
:102AE000000000000000000000000000090000E0FD
:102AF0000FE00F200920092009E009E009C00900C2
:102B00000000000000000000000000060000F80FB8
:102B1000F80F280028002800000000000000000036
:102B20000000000000000000000009C007E00FE006
:102B30006F206820682068E07FE07FC03F000000D1
:102B4000000000000000000000090000F80FF80F6E
:102B5000200020002000E00FE00FC00F0000000068
:102B60000000000000000000030000E80FE80F0074
:102B70000000000000000000000000000000000055
:102B800000000000000000030060E87FE87F000014
:102B90000000000000000000000000000000000035
:102BA000000000000000090000F80FF80F0001808D
:102BB00003C007E00E20082008000000000000000D
:102BC0000000000000040000F80FF80F00080000EB
:102BD00000000000000000000000000000000000F5
:102BE000000000000C0000E00FE00F20002000E0DB
:102BF0000FE00FE00F20002000E00FE00F000000CA
:102C0000000000090000E00FE00F2000200020007D
:102C1000E00FE00FC00F0000000000000000000007
:102C20000000090000E00FE00F200820082008E065
:102C30000FE00FC0070000000000000000000000CF
:102C400000090000E07FE07F200820082008E00F56
:102C5000E00FC007000000000000000000000000BE
:102C600008C007E00FE00F200820082008E07FE000
:102C70007F000000000000000000000000000007CE
:102C80000000E00FE00F20002000200020000000E6
:102C9000000000000000000000000000000009002B
:102CA00000E00DE00D200920092009600F600F40B1
:102CB0000600000000000000000000000006000008
:102CC000F80FF80F2008200820080000000000007E
:102CD000000000000000000000000000090000E00B
:102CE0000FE00F000800080008E00FE00FE0070009
:102CF00000000000000000000000000A200060004A
:102D0000E001C007000F000E800FE003E00020008C
:102D1000000000000000000000000D2000E000E0C6
:102D200003800F000FE007E001E001C007000FC0C3
:102D30000FE003E000000000000900002008E00EA2
:102D4000C00F8003C007E00E600C200800000000E8
:102D5000000000000000000009E003E00FE06F0049
:102D60006800680068E07FE07FE03F00000000004E
:102D700000000000000000090000200C200E200FC1
:102D8000A00BA009E008E0086008000000000000B7
:102D9000000000000000048000F00F780F18080009
:102DA0000000000000000000000000000000000023
:102DB0000000000000030000FC1FFC1F00000000DA
:102DC0000000000000000000000000000000000003
:102DD00000000000040000780FF80FF0070000006A
:102DE00000000000000000000000000000000000E3
:102DF00000000006000100010001000100010001C7
:102E000000000000000000000000000000000000C2
:102E1000000004F01FF01FF01FF01F000000000072
:102E200000000000000000000000000000000000A2
:102E300000250C16032C0C00000000000000000010
:102E40000000000000000000000000000000000082
:102E500000000000000000000000000C001F00C087
:102E60007F00E0FF00E0FF01C0FF0380FF0780FF5D
:102E700007C0FF03E0FF01E0FF00C07F00001F006C
:102E80000900000000000000000000001C00003EDF
:102E900000003F00003F00003E00001C000000005A
:102EA00000000000000C00002000003C00003F007B
:102EB000C00F00F803007E00801F00F00700FC0038
:102EC000003F00000F00000100000C807F00F0FFB9
:102ED00003FCC00F0E001C030030030630030C304F
:102EE0000300300E001CFCC00FF0FF03807F0009C0
:102EF0000000000000001000003800001C00000E60
:102F00000000060000FFFF3FFFFF3F000000000041
:102F1000000000000B0000000800001C003E0E80B6
:102F20003F07E033037030033C30031E3086073028
:102F3000FE0330F800300000000C00000000000428
:102F40000C000E1E001C060038030030030C30037A
:102F50000C30030E30061F1CFEF31FF8E1070B00B8
:102F6000C00000F00000FC0000CF00C0C300F0C0B3
:102F7000007CC0001FC000FFFF3FFFFF3F00C000FC
:102F80000000000B00000000000CFF031CFF0338D2
:102F9000030330030330030330030738030E1C031D
:102FA000FC0F03F0070000000C000000F0FF03FC22
:102FB000FF0F0E181C060C380306300306300306FC
:102FC00030030638061C1C0EFC0F04F0070B000033
:102FD0000003000003000003003E03E03F03F83F4E
:102FE000033E00830F00F303007F00001F0000007A
:102FF00000000C00000078C007FEF10F863B1803AC
:103000001F30030E30030E30030E30031F30863B9B
:1030100018FEF10F78C0070B000000F00708FC1F36
:103020001C0E1C38033030033030033030031838A6
:103030000E0C1CFCFF0FF0FF030000000706080148
:1030400030064E2A1E7854720600868989897106D8
:1030500000FC2424241806007E8181817E0600E283
:10306000919189860600FF080808FF0600FF0919EC
:103070006986000094300008000000203400000041
:103080002A0F0008C830000834000020340900006E
:103090003A0F0008000000000000000000000000DF
:1030A0000000000000000000000000000800000018
:1030B000640000001C000020000000000000000070
:0830C00000127A00000000007C
:04000005080000B13E
:00000001FF
